:10000000C835002075610000DFF300006161000069
:1000100061610000616100006161000061610000D8
:10002000000000000000000000000000F562000079
:100030006161000000000000896200006161000051
:10004000856400008564000085640000856400000C
:1000500085640000856400008564000085640000FC
:1000600085640000856400008564000085640000EC
:1000700085640000856400008564000085640000DC
:1004800081F0004102E000BF83F0004330B54FEA45
:1004900041044FEA430594EA050F08BF90EA020FB2
:1004A0001FBF54EA000C55EA020C7FEA645C7FEA45
:1004B000655C00F0E2804FEA5454D4EB5555B8BF68
:1004C0006D420CDD2C4480EA020281EA030382EAD9
:1004D000000083EA010180EA020281EA0303362D6B
:1004E00088BF30BD11F0004F4FEA01314FF4801C3E
:1004F0004CEA113102D0404261EB410113F0004F50
:100500004FEA03334CEA133302D0524263EB430306
:1005100094EA050F00F0A780A4F10104D5F1200EA4
:100520000DDB02FA0EFC22FA05F2801841F10001FF
:1005300003FA0EF2801843FA05F359410EE0A5F1D3
:1005400020050EF1200E012A03FA0EFC28BF4CF004
:10055000020C43FA05F3C01851EBE37101F00045BA
:1005600007D54FF0000EDCF1000C7EEB00006EEBC7
:100570000101B1F5801F1BD3B1F5001F0CD3490851
:100580005FEA30004FEA3C0C04F101044FEA4452A8
:1005900012F5800F80F09A80BCF1004F08BF5FEA2F
:1005A000500C50F1000041EB045141EA050130BD0F
:1005B0005FEA4C0C404141EB0101013C28BFB1F521
:1005C000801FE9D291F0000F04BF01460020B1FA6C
:1005D00081F308BF2033A3F10B03B3F120020CDA3F
:1005E0000C3208DD02F1140CC2F10C0201FA0CF01D
:1005F00021FA02F10CE002F11402D8BFC2F1200C82
:1006000001FA02F120FA0CFCDCBF41EA0C01904037
:10061000E41AA2BF01EB0451294330BD6FEA040480
:100620001F3C1CDA0C340EDC04F11404C4F120026B
:1006300020FA04F001FA02F340EA030021FA04F37D
:1006400045EA030130BDC4F10C04C4F1200220FAD4
:1006500002F001FA04F340EA0300294630BD21FA12
:1006600004F0294630BD94F0000F83F4801306BFD8
:1006700081F480110134013D4EE77FEA645C18BFCC
:100680007FEA655C29D094EA050F08BF90EA020F63
:1006900005D054EA000C04BF1946104630BD91EA5B
:1006A000030F1EBF0021002030BD5FEA545C05D15E
:1006B0004000494128BF41F0004130BD14F580049D
:1006C0003CBF01F5801130BD01F0004545F0FE4111
:1006D00041F470014FF0000030BD7FEA645C1ABF46
:1006E000194610467FEA655C1CBF0B46024650EA7D
:1006F000013406BF52EA033591EA030F41F40021A9
:1007000030BD00BF90F0000F04BF0021704730B52E
:100710004FF4806404F132044FF000054FF0000103
:1007200050E700BF90F0000F04BF0021704730B5C4
:100730004FF4806404F1320410F0004548BF404299
:100740004FF000013EE700BF42004FEAE2014FEAEE
:1007500031014FEA02701FBF12F07F4393F07F4FC9
:1007600081F06051704732F07F4208BF704793F0CC
:100770007F4F04BF41F40021704730B54FF46074DF
:1007800001F0004521F000411CE700BF50EA0102E2
:1007900008BF704730B54FF000050AE050EA01028B
:1007A00008BF704730B511F0004502D5404261EBFB
:1007B00041014FF4806404F132045FEA915C3FF43C
:1007C000D8AE4FF003025FEADC0C18BF03325FEAD9
:1007D000DC0C18BF033202EBDC02C2F1200300FA8A
:1007E00003FC20FA02F001FA03FE40EA0E0021FAAF
:1007F00002F11444BDE600BF70B54FF0FF0C4CF49D
:10080000E06C1CEA11541DBF1CEA135594EA0C0F4E
:1008100095EA0C0F00F0DEF82C4481EA030621EA89
:100820004C5123EA4C5350EA013518BF52EA0335C4
:1008300041F4801143F4801338D0A0FB02CE4FF076
:100840000005E1FB02E506F00042E0FB03E54FF0A6
:100850000006E1FB03569CF0000F18BF4EF0010E9E
:10086000A4F1FF04B6F5007F64F5407404D25FEA9A
:100870004E0E6D4146EB060642EAC62141EA55514D
:100880004FEAC52040EA5E504FEACE2EB4F1FD0C8F
:1008900088BFBCF5E06F1ED8BEF1004F08BF5FEA0D
:1008A000500E50F1000041EB045170BD06F00046BF
:1008B00046EA010140EA020081EA0301B4EB5C046C
:1008C000C2BFD4EB0C0541EA045170BD41F4801164
:1008D0004FF0000E013C00F3AB8014F1360FDEBF89
:1008E000002001F0004170BDC4F10004203C35DA65
:1008F0000C341BDC04F11404C4F1200500FA05F3E8
:1009000020FA04F001FA05F240EA020001F0004288
:1009100021F0004110EBD37021FA04F642EB0601FE
:100920005EEA430E08BF20EAD37070BDC4F10C0428
:10093000C4F1200500FA04F320FA05F001FA04F2EC
:1009400040EA020001F0004110EBD37041F10001D8
:100950005EEA430E08BF20EAD37070BDC4F12005E3
:1009600000FA05F24EEA020E20FA04F301FA05F24B
:1009700043EA020321FA04F001F0004121FA04F2F3
:1009800020EA020000EBD3705EEA430E08BF20EAC3
:10099000D37070BD94F0000F0FD101F000464000FD
:1009A00041EB010111F4801F08BF013CF7D041EA7F
:1009B000060195F0000F18BF704703F00046520083
:1009C00043EB030313F4801F08BF013DF7D043EA54
:1009D0000603704794EA0C0F0CEA135518BF95EA0A
:1009E0000C0F0CD050EA410618BF52EA4306D1D191
:1009F00081EA030101F000414FF0000070BD50EAB0
:100A0000410606BF1046194652EA430619D094EA39
:100A10000C0F02D150EA013613D195EA0C0F05D123
:100A200052EA03361CBF104619460AD181EA030177
:100A300001F0004141F0FE4141F470014FF000002F
:100A400070BD41F0FE4141F4780170BD70B54FF0CA
:100A5000FF0C4CF4E06C1CEA11541DBF1CEA13554A
:100A600094EA0C0F95EA0C0F00F0A7F8A4EB05042C
:100A700081EA030E52EA03354FEA013100F0888023
:100A80004FEA03334FF0805545EA131343EA1263EC
:100A90004FEA022245EA111545EA10654FEA0026A1
:100AA0000EF000419D4208BF964244F1FD0404F55A
:100AB000407402D25B084FEA3202B61A65EB0305B6
:100AC0005B084FEA32024FF480104FF4002CB6EB73
:100AD000020E75EB030E22BFB61A754640EA0C00F3
:100AE0005B084FEA3202B6EB020E75EB030E22BF33
:100AF000B61A754640EA5C005B084FEA3202B6EB74
:100B0000020E75EB030E22BFB61A754640EA9C0032
:100B10005B084FEA3202B6EB020E75EB030E22BF02
:100B2000B61A754640EADC0055EA060E18D04FEAC0
:100B3000051545EA16754FEA06164FEAC30343EA60
:100B400052734FEAC2025FEA1C1CC0D111F4801F2D
:100B50000BD141EA00014FF000004FF0004CB6E726
:100B600011F4801F04BF01430020B4F1FD0C88BFC5
:100B7000BCF5E06F3FF6AFAEB5EB030C04BFB6EBD0
:100B8000020C5FEA500C50F1000041EB045170BDC3
:100B90000EF0004E4EEA113114EB5C04C2BFD4EBF0
:100BA0000C0541EA045170BD41F480114FF0000E74
:100BB000013C90E645EA060E8DE60CEA135594EAF0
:100BC0000C0F08BF95EA0C0F3FF43BAF94EA0C0FF3
:100BD0000AD150EA01347FF434AF95EA0C0F7FF468
:100BE00025AF104619462CE795EA0C0F06D152EABC
:100BF00003353FF4FDAE1046194622E750EA4106A0
:100C000018BF52EA43067FF4C5AE50EA41047FF4B0
:100C10000DAF52EA43057FF4EBAE12E74FF0FF3C15
:100C200006E000BF4FF0010C02E000BF4FF0010CE6
:100C30004DF804CD4FEA410C7FEA6C5C4FEA430C5F
:100C400018BF7FEA6C5C1BD001B050EA410C0CBFAE
:100C500052EA430C91EA030F02BF90EA020F002010
:100C6000704710F1000F91EA030F58BF994208BF77
:100C700090422CBFD8176FEAE37040F00100704734
:100C80004FEA410C7FEA6C5C02D150EA013C07D18B
:100C90004FEA430C7FEA6C5CD6D152EA033CD3D0D6
:100CA0005DF8040B704700BF8446104662468C46D0
:100CB0001946634600E000BF01B5FFF7B7FF002803
:100CC00048BF10F1000F01BD4DF808EDFFF7F4FF2C
:100CD0000CBF012000205DF808FB00BF4DF808EDB7
:100CE000FFF7EAFF34BF012000205DF808FB00BFDA
:100CF0004DF808EDFFF7E0FF94BF012000205DF8FC
:100D000008FB00BF4DF808EDFFF7CEFF94BF0120B0
:100D100000205DF808FB00BF4DF808EDFFF7C4FFA9
:100D200034BF012000205DF808FB00BF4FEA4102FC
:100D300012F5001215D211D56FF47873B3EB62522D
:100D400012D94FEAC12343F0004343EA505311F054
:100D5000004F23FA02F018BF404270474FF00000E6
:100D6000704750EA013005D111F0004008BF6FF024
:100D7000004070474FF00000704700BF4A0011D29A
:100D800012F5001211D20DD56FF47873B3EB6252E5
:100D90000ED44FEAC12343F0004343EA505323FAF1
:100DA00002F070474FF00000704750EA013002D166
:100DB0004FF0FF3070474FF0000070474FEA41029C
:100DC000B2F1E04324BFB3F5001CDCF1FE5C0DD9A9
:100DD00001F0004C4FEAC0024CEA5070B2F1004FF3
:100DE00040EB830008BF20F00100704711F0804FF6
:100DF00021D113F13872BCBF01F00040704741F4BB
:100E000080114FEA5252C2F11802C2F1200C10FABE
:100E10000CF320FA02F018BF40F001004FEAC123A2
:100E20004FEAD32303FA0CFC40EA0C0023FA02F346
:100E30004FEA4303CCE77FEA625307D150EA01331C
:100E40001EBF4FF0FE4040F44000704701F00040EC
:100E500040F0FE4040F40000704700BF80F00040CA
:100E600002E000BF81F0004142001FBF5FEA410382
:100E700092EA030F7FEA226C7FEA236C6AD04FEA82
:100E80001262D2EB1363C1BFD218414048404140C7
:100E9000B8BF5B42192B88BF704710F0004F40F479
:100EA000000020F07F4018BF404211F0004F41F495
:100EB000000121F07F4118BF494292EA030F3FD061
:100EC000A2F1010241FA03FC10EB0C00C3F1200374
:100ED00001FA03F100F0004302D5494260EB400003
:100EE000B0F5000F13D3B0F1807F06D340084FEA6E
:100EF000310102F10102FE2A51D2B1F1004F40EB63
:100F0000C25008BF20F0010040EA030070474900CA
:100F100040EB0000013A28BFB0F5000FEDD2B0FA67
:100F200080FCACF1080CB2EB0C0200FA0CF0AABF8A
:100F300000EBC25052421843BCBFD0401843704728
:100F400092F0000F81F4000106BF80F4000001322E
:100F5000013BB5E74FEA41037FEA226C18BF7FEA05
:100F6000236C21D092EA030F04D092F0000F08BF47
:100F70000846704790EA010F1CBF0020704712F02E
:100F80007F4F04D1400028BF40F00040704712F16D
:100F900000723CBF00F50000704700F0004343F0D2
:100FA000FE4040F4000070477FEA226216BF084608
:100FB0007FEA23630146420206BF5FEA412390EACB
:100FC000010F40F4800070474FF0000304E000BFC1
:100FD00010F0004348BF40425FEA000C08BF704772
:100FE00043F0964301464FF000001CE050EA010236
:100FF00008BF70474FF000030AE000BF50EA01024B
:1010000008BF704711F0004302D5404261EB410137
:101010005FEA010C02BF84460146002043F0B6435C
:1010200008BFA3F18053A3F50003BCFA8CF2083A81
:10103000A3EBC25310DB01FA02FC634400FA02FC8A
:10104000C2F12002BCF1004F20FA02F243EB020091
:1010500008BF20F00100704702F1200201FA02FCF3
:10106000C2F1200250EA4C0021FA02F243EB0200E6
:1010700008BF20EADC7070474FF0FF0C1CEAD0522A
:101080001EBF1CEAD15392EA0C0F93EA0C0F6FD0EB
:101090001A4480EA010C400218BF5FEA41211ED0C9
:1010A0004FF0006343EA501043EA5111A0FB0131B5
:1010B0000CF00040B1F5000F3EBF490041EAD3718A
:1010C0005B0040EA010062F17F02FD2A1DD8B3F106
:1010D000004F40EBC25008BF20F00100704790F075
:1010E000000F0CF0004C08BF49024CEA502040EAC7
:1010F00051207F3AC2BFD2F1FF0340EAC25070478D
:1011000040F400004FF00003013A5DDC12F1190FCA
:10111000DCBF00F000407047C2F10002410021FA3C
:1011200002F1C2F1200200FA02FC5FEA310040F154
:10113000000053EA4C0308BF20EADC70704792F0CD
:10114000000F00F0004C02BF400010F4000F013A05
:10115000F9D040EA0C0093F0000F01F0004C02BF00
:10116000490011F4000F013BF9D041EA0C018FE76F
:101170000CEAD15392EA0C0F18BF93EA0C0F0AD075
:1011800030F0004C18BF31F0004CD8D180EA01009B
:1011900000F00040704790F0000F17BF90F0004F34
:1011A000084691F0000F91F0004F14D092EA0C0F16
:1011B00001D142020FD193EA0C0F03D14B0218BFA9
:1011C000084608D180EA010000F0004040F0FE40EF
:1011D00040F40000704740F0FE4040F4400070478B
:1011E0004FF0FF0C1CEAD0521EBF1CEAD15392EA0A
:1011F0000C0F93EA0C0F69D0A2EB030280EA010CFA
:1012000049024FEA402037D04FF0805343EA111192
:1012100043EA10130CF000408B4238BF5B0042F1F0
:101220007D024FF4000C8B4224BF5B1A40EA0C0095
:10123000B3EB510F24BFA3EB510340EA5C00B3EBC7
:10124000910F24BFA3EB910340EA9C00B3EBD10FB5
:1012500024BFA3EBD10340EADC001B0118BF5FEA07
:101260001C1CE0D1FD2A3FF650AF8B4240EBC25030
:1012700008BF20F0010070470CF0004C4CEA5020F1
:101280007F32C2BFD2F1FF0340EAC250704740F440
:1012900000004FF00003013A37E792F0000F00F032
:1012A000004C02BF400010F4000F013AF9D040EAB0
:1012B0000C0093F0000F01F0004C02BF490011F444
:1012C000000F013BF9D041EA0C0195E70CEAD1533C
:1012D00092EA0C0F08D142027FF47DAF93EA0C0F23
:1012E0007FF470AF084676E793EA0C0F04D14B0207
:1012F0003FF44CAF08466EE730F0004C18BF31F0B9
:10130000004CCAD130F000427FF45CAF31F00043B2
:101310007FF43CAF5FE700BF4FEA4002B2F1FE4FFF
:101320000FD34FF09E03B3EB12620DD94FEA0023A7
:1013300043F0004310F0004F23FA02F018BF404280
:1013400070474FF00000704712F1610F01D1420267
:1013500005D110F0004008BF6FF0004070474FF01B
:10136000000070477BB972B90029BEBF00204FF062
:10137000004106E008BF00281CBF6FF000414FF09D
:10138000FF3000F057B8ADF1080C6DE904CE00292C
:1013900009DB002B1ADB00F069F8DDF804E0DDE979
:1013A000022304B07047404261EB4101002B1BDB7C
:1013B00000F05CF8DDF804E0DDE9022304B040420F
:1013C00061EB4101524263EB43037047524263EBCE
:1013D000430300F04BF8DDF804E0DDE9022304B03C
:1013E000404261EB41017047524263EB430300F01E
:1013F0003DF8DDF804E0DDE9022304B0524263EB7E
:101400004303704753B94AB9002908BF00281CBFDD
:101410004FF0FF314FF0FF3000F00CB8ADF1080C89
:101420006DE904CE00F022F8DDF804E0DDE90223E6
:1014300004B07047704700BF10F8012B11F8013B52
:10144000012A28BF9A42F7D0D01A7047034611F8F4
:10145000012B03F8012B002AF9D17047034613F83A
:10146000012B002AFBD1181A013870472DE9F047EB
:1014700086468C460846089E154674461946002B3B
:1014800040F0C1808542B2FA82F245D94AB1C2F138
:10149000200300FA02FC954094402EFA03F343EA3D
:1014A0000C0C4FEA154EA8B2230CBCFBFEF80EFB49
:1014B00018CC08FB00F943EA0C43994528D9EB18EE
:1014C00008F1FF3704D2994502D9A8F102072B444D
:1014D000A3EB0903A4B2B3FBFEFC0EFB1C330CFB15
:1014E00000F044EA0344A04214D92C190CF1FF3354
:1014F00004D2A04202D9ACF102032C44241A43EADC
:1015000007401EB1D440002334607360BDE8F0870B
:101510004746DDE76346F1E792BB431B01214FEAF3
:10152000154EAFB2200CB3FBFEFC0EFB1C330CFBC4
:1015300007F840EA0343984561D9EB180CF1FF30F6
:1015400004D2984502D9ACF102002B44A3EB080366
:10155000A4B2B3FBFEFC0EFB1C330CFB07F744EA02
:101560000344A7424DD92C190CF1FF3304D2A742F2
:1015700002D9ACF102032C44E41B43EA0040C0E76B
:10158000C2F120039540944020FA03F12EFA03F3B0
:101590004FEA154E9040AFB20343B1FBFEFC0EFB89
:1015A0001C10190C0CFB07F841EA0041884522D9B0
:1015B00069180CF1FF3004D2884502D9ACF1020061
:1015C0002944A1EB08019BB2B1FBFEFC0EFB1C11F0
:1015D0000CFB07F743EA01439F420ED9EB180CF1CD
:1015E000FF3104D29F4202D9ACF102012B44DB1B34
:1015F00041EA004193E76046E3E76146F7E760466A
:10160000A4E76346B8E7834206D916B90021084625
:101610007CE7C6E900E0F9E7B3FA83F78FB98342C4
:1016200001D3724508D8BEEB020460EB030301202E
:101630009C461EB9002169E73846FAE7C6E9004C26
:10164000F8E7C7F1200CBB400EFA07F522FA0CF4BC
:101650002EFA0CF1BA401C4320FA0CF3B8404FEAC2
:10166000144901431FFA84FEB3FBF9F809FB183053
:101670000B0C08FB0EFA43EA00439A4540D9E318E5
:1016800008F1FF3004D29A4502D9A8F102002344A0
:10169000A3EB0A0389B2B3FBF9F809FB183308FB83
:1016A0000EFE41EA03418E452CD9611808F1FF3343
:1016B00004D28E4502D9A8F10203214443EA004036
:1016C000A1EB0E01A0FB02984145CE46434602D352
:1016D00006D14D4504D20138B9EB020E68EB040384
:1016E000002EA7D0B5EB0E0261EB030101FA0CFC52
:1016F00022FA07F3F9404CEA0303C6E9003199E7FF
:101700004046C5E74346D9E72DE9F04704460F4672
:10171000164688B00FF0A8FC4FF47A75A0FB050CB4
:1017200047F6122205FB01C10023FFF76BFE012FD4
:1017300080460D4607D102460B46204626490CF04E
:10174000DFFD002011E0766824483146FFF774FE83
:1017500070B131462248FFF76FFE48B1204632464D
:1017600020490CF0E9FD6FF0040008B0BDE8F087F7
:10177000404617A3D3E900232946FFF7F3FD0646A9
:101780000D4610461946184A0023FFF7EBFD804628
:101790000F46104619464EF660220023FFF7E2FD81
:1017A00082468946104619464FF47A720023FFF7A5
:1017B000D9FDCDE902A9CDE90623CDE904013246E0
:1017C0002B462046CDE9008708490CF099FDB8E783
:1017D000005C2605000000007354010084540100E1
:1017E000875401009054010080EE3600A854010097
:1017F0002DE9FF4721F00042AF4F04460D46BA42A3
:101800004FEAD17632D9AD4FBA4216D894A3D3E974
:101810000023FFF781FA074610BB2046294692A312
:10182000D3E90023FFF75AFA002800F09E803846DB
:1018300004B0BDE8F04710F02CB8C1F31303024622
:10184000034305D00B46FEF721FE04460D4602E099
:10185000002E40F0FF802046294604B0BDE8F08706
:10186000002004B0BDE8F0470BF004BC944B9A4252
:1018700040F2A780934B9A4277D8934BF400C6F17D
:10188000010A03EBC603AAEB060AD3E90023FEF71D
:10189000FBFD8E4B804689462344D3E90034CDE9D5
:1018A0000034DDE9002340464946FEF7EDFD0446DD
:1018B0000D4622462B4620462946FEF79DFF06464A
:1018C0000F466BA3D3E90023FEF796FF6AA3D3E983
:1018D0000023FEF7D9FD32463B46FEF78DFF68A395
:1018E000D3E90023FEF7D2FD32463B46FEF784FFE4
:1018F00065A3D3E90023FEF7C7FD32463B46FEF75A
:101900007BFF63A3D3E90023FEF7C0FD32463B46CD
:10191000FEF772FF02460B4620462946FEF7B4FD4D
:1019200002460B4606460F4620462946FEF764FF50
:10193000CDE90201BAF1000F5AD100224FF08043E5
:1019400030463946FEF7A0FD02460B46DDE90201AE
:10195000FFF77CF822462B46FEF796FD02460B4623
:1019600000205B49FEF790FD6FE75A4B2046294661
:1019700003EBC60648A3D3E90023FEF73DFFD6E9F3
:101980000023FEF783FDFFF7D1F98246FEF7CAFE7A
:1019900006460F4642A3D3E90023FEF72DFF024679
:1019A0000B4620462946FEF76FFD804689463046A5
:1019B00039463DA3D3E90023FEF71EFFCDE9000120
:1019C0006FE7454B9A420ED839A3D3E90023FEF7BF
:1019D0005DFD00223E4BFFF79FF938B100223C4BE2
:1019E000204629462FE74FF0000A62E7824660E76B
:1019F00032463B4600204FF08041FEF745FD02464F
:101A00000B46DDE90201FFF721F802460B46DDE94E
:101A10000001FEF739FD42464B46FEF735FD0B4609
:101A200002462B490020FEF72FFD0B466FF47F7115
:101A300006468A4503DB344603EB0A550BE70AF5F5
:101A40007A7A3046002203EB0A514FF0B873FEF762
:101A5000D3FEFAE600240025FDE600BFAFF30080C8
:101A6000EF39FAFE422E864051302DD5104987C0FD
:101A7000D0A4BE726937663EF16BD2C541BDBB3E94
:101A80002CDE25AF6A56113F93BDBE166CC1663F72
:101A90003E5555555555C53FFE822B654715F73FB9
:101AA0000000E0FE422EE63F763C7935EF39EA3D14
:101AB0009C7500883CE4377E412E8640FFFFEF7F17
:101AC000422ED63FB1A2F03F882B0100782B0100B7
:101AD0000000F03F982B0100FFFFEF3D00000000E9
:101AE000B1F5801F2DE9F04F074687B088460D46B7
:101AF00025DA21F00043034305D1012007B0BDE8FA
:101B0000F04F0BF0C3BA002904DA07B0BDE8F04F7C
:101B10000BF0C8BA0022C64BFEF76EFE88460D4693
:101B200007466FF03501C34885420ADD3A46434611
:101B300038464146FEF7AAFC07B0BDE8F08F002109
:101B4000F1E72C15C5F3130500223846A4F2FF3443
:101B50000C4405F5152101F6647101F4801686F038
:101B60007F5104EB165481F4401141EA05031946F4
:101B7000B14BFEF789FCAB1C82468B46C3F31303C3
:101B80000022022B53DC0023FFF79EF8D0B1002C7B
:101B900000F020812046FEF7C5FD06460F4690A3C3
:101BA000D3E90023FEF728FE04460D4630463946A9
:101BB0008DA3D3E90023FEF71FFE02460B46204605
:101BC0002946B7E78AA3D3E9002350465946FEF7D2
:101BD00013FE02460B4600209849FEF755FC0646C8
:101BE0000F4652465B4650465946FEF705FE0246F2
:101BF0000B4630463946FEF7FFFD06460F4614B940
:101C000032463B46A0E02046FEF78CFD80468946E2
:101C100073A3D3E90023FEF7EFFD04460D464046CB
:101C2000494671A3D3E90023FEF7E6FDA5E04FF096
:101C30008043A5F5C226FEF729FC02460B46504616
:101C40005946C5F5D725FEF701FFA6F27A4651356C
:101C5000CDE9000120463543FEF764FDDDE90023B0
:101C6000CDE9020110461946FEF7C6FD02460B46B5
:101C7000CDE90423FEF7C0FD804689465EA3D3E983
:101C80000023FEF7B9FD5EA3D3E90023FEF7FEFBB8
:101C900042464B46FEF7B0FD5BA3D3E90023FEF7B7
:101CA000F5FB42464B46FEF7A7FD59A3D3E90023B7
:101CB000FEF7ECFBDDE90423FEF79EFD56A3D3E916
:101CC0000023CDE9040140464946FEF795FD54A3A3
:101CD000D3E90023FEF7DAFB42464B46FEF78CFDC4
:101CE00051A3D3E90023FEF7D1FB42464B46FEF752
:101CF00083FD02460B46DDE90401FEF7C7FB002D1C
:101D00008046894648DD00224C4B50465946FEF736
:101D100073FD52465B46FEF76FFD02460B460646D4
:101D20000F4640464946FEF7B1FBDDE90023FEF7CA
:101D300063FD8046894664B902460B463046394603
:101D4000FEF7A2FB02460B4650465946FEF79CFBA7
:101D5000F2E623A3D3E90023DDE90201FEF74CFDFF
:101D600004460D4620A3D3E90023DDE90201FEF776
:101D700043FD42464B46FEF789FB02460B46304682
:101D80003946FEF781FB52465B46FEF77DFB024675
:101D90000B4620462946D9E702460B46504659468F
:101DA000FEF772FBDDE90023FEF726FD06460F462F
:101DB000002C3FF425AF0AA3D3E90023DDE902019B
:101DC000FEF71AFD04460D4607A3D3E90023DDE91B
:101DD000020129E700200021AEE600BFAFF300803A
:101DE0000000E0FE422EE63F763C7935EF39EA3DD1
:101DF000555555555555D53F44523EDF12F1C23F1A
:101E0000DE03CB966446C73F599322942449D23FC0
:101E1000935555555555E53F9FC678D0099AC33F10
:101E2000AF788E1DC571CC3F04FA97999999D93F27
:101E300000005043FFFFEF7F0000F03F0000E03F55
:101E400070B51E480BF0E7FA1D480BF0E4FA1D4888
:101E50000BF077F920B91C48BDE870400BF0DBBAF5
:101E6000032118480BF06FF9011E04DABDE8704039
:101E700016480BF0D0BA0024154E124D01342146FD
:101E800030460BF0C8FA0122032128460BF069F90D
:101E90004FF4FA600BF075F921460E480BF0BBFACF
:101EA0000022032128460BF05CF94FF4FA600BF096
:101EB00068F9052CE2D10848CEE700BF1A4C0100B2
:101EC0002F4C0100641B01003A4B01005A4C0100E9
:101ED000884C01009E4C0100B34C010010B51B481A
:101EE0000BF099FA1A480BF096FA1A480BF093FA8D
:101EF00019480BF090FA19480BF08DFA18480BF0BE
:101F000020F90446E0B117480BF085FA16480BF0AB
:101F100018F998B115480BF07EFA4FF47A700BF06F
:101F200030F913480BF077FA12480BF074FAFFF708
:101F300087FF4FF47A700BF024F9F8E70E48EAE7D0
:101F40000E480BF068FA204610BD00BFCC4C0100D3
:101F5000F74C0100164D01003A4D0100654D01009E
:101F60004C1B0100804D0100641B0100C84D0100A5
:101F7000294E0100534E0100EB4D0100A04D010020
:101F80002DE9F04F91B0009302F004030293C2F3E5
:101F9000C2030133840705460E46DDF868800392CC
:101FA000059340F0BB81041D30B1072909D86FF0BB
:101FB0001B0011B0BDE8F08F01F007063444C6F1F4
:101FC0000806009B4FF000094FF0040A591E4FF01D
:101FD000FF334F460193CB465346CDF810900DB1D9
:101FE000009A22600598002800F3E8809848009A3B
:101FF000824203D397488242C0F0E080039AA4EB68
:10200000050E92074FEA9E0000F103810F2F00F2A8
:10201000B180002D00F0058107F140020DEB020CAC
:10202000019A0CF8200C0CF8102C04980130049044
:10203000E7E07A285DD84B280ED8472859D82928B8
:102040002DD8252852D054D820287AD02338D0F142
:10205000000B4BEB000B74E04C382E2849D8DFE81E
:1020600000F07048484848484848484848484B4865
:102070004848484848484859484B4B595959704B6B
:102080006D487048184B184848827F4B48484B4869
:102090007F0000204FF0000B4FF0040A38E00122CF
:1020A0002A38C0B202FA00F010EA0E0F49D110F03F
:1020B000625C2FD110EA020B43D06046013C5444CD
:1020C000B4FBFAF40AFB04F4002D61D0A3EB050C79
:1020D000A444B4453FF66BAF002868D1042B47D128
:1020E00058F8043B2360042304342AE0019A013A9F
:1020F00001924FF0000B24E011F8010C6C2834D150
:10210000002011F8023C83466C2BC5D14FF0080A21
:102110005346D3E708F1070828F00708073424F0EE
:102120000704F8E802AB35B106982044B0423FF608
:102130003EAFC4E900AB4FF0000B08344FF0080A83
:10214000534611F8010F002878D0BBF1000F7FF43F
:1021500070AF2528F5D14FF0010B019B013301939E
:102160004FF0040AECE7584694E700208346A5E7C1
:10217000082B02D06FF015001BE708F1070828F0C4
:102180000708F8E80223C4E9002308230834D8E745
:1021900068B9042B02D108F10408A4E7082BE9D19F
:1021A00008F1070828F0070808F10808EDE7059A84
:1021B000013A059258F8042B009210E7039A900711
:1021C00020D54FF0010CA4EB050E4FEA9E00BEF5A2
:1021D000007FCFD20F2FCDD8F5B107F140020DEB24
:1021E000020E019AC0B20EF8200C0EF8102CBCF1B1
:1021F000000F3FF41AAF60F07F000EF8200C09F1D9
:1022000001090137C5F108024FF6DA7E043406925F
:1022100097E74FF0000CDAE7BCF1000F01D0013670
:10222000EFE7029802360028EBD10098CDE906319D
:10223000FFF714F9DDE906310644E2E7631BB3F565
:10224000806F97D245B9A6F10804E018B1E600BF47
:10225000F41901004C710100029A9B0828602B7050
:102260009DF81030C2B1EB7085F80290B9F1000F03
:1022700005D0002208A8C5F1010C97420ED14FF0FD
:10228000000AC5F101030DF1200801930DF1300B97
:10229000574512D1601B8CE66B70E5E710F8013BE7
:1022A000190608D50CEB040EB64503F07F033FF684
:1022B0007EAE04F8013B0132DFE7B9F1000F03D035
:1022C00098F90020002A17DB029BD3B11AF80B20E3
:1022D00004F8012B0022019B18191044B0423FF66C
:1022E00066AE98F80000009904F8010B20460392AE
:1022F0000FF024F9039A14440AF1010A08F10108C5
:10230000C6E798F8002055F822300093029B009809
:1023100045F82230FFF7A2F8421CDCE76FF00D0011
:1023200047E600BF2DE9F04F97B000AFD7F880B077
:102330003B62CBF3C0030446894690F802A0FA62E0
:10234000BB6141B9457800780AEB800020444D45D7
:1023500017D8A0EB0409E378FB61BAF1000F02D0B3
:102360001BF0010F16D1FB6953BBFB6A1BB1494639
:1023700020463A6A98474D4628465C37BD46BDE838
:10238000F08F461C3046FFF769F80130304409F100
:102390000109DCE7626823787A62FA6A9900796158
:1023A00004EB8301002A40F005810E464FF000083F
:1023B0004D4601EB0A094E4550D101EB0A0610E0EB
:1023C0001BF0020FD1D023789A007A61626804EB87
:1023D00083017A62FA6A002A7BD14D46904601EB6E
:1023E0000A061BF0050F0CBF02230123FB62FB69E9
:1023F00006EB430A0BF00203BB625645BCD016F84D
:10240000021B16F8013C54F823909B4B994502D3CC
:102410009A4B99453AD3BB69002B44D0786A0AF0AD
:10242000D3FF00283FD09648036813F0060F13D05F
:10243000E9468AB06A46934B53617B6AC2E906312A
:102440004FF400731384904B42F8103F00234FF475
:10245000125100F025FECD46023DCEE716F8013BB5
:10246000F96254F82300FEF7F9FFD7F88430F96ACF
:1024700001304BB1D7F8883098453EBFD7F884304B
:1024800023F8180008F10108054494E7BB6923B15B
:10249000786A0AF099FF0028C5D11BF0010F05D119
:1024A000FB6AED1AA9E7BB6A002BA6D04846FEF7E7
:1024B000D5FFD7F8843053B1D7F8883098453FBF5F
:1024C000D7F88420431C22F8183008F1010805448D
:1024D00093E7BAF1000F73D01BF0040673D0D04617
:1024E000002607F1480052463B61B9620FF026F81A
:1024F000B96A3B6901EB0A02BA62FA69F9695200EA
:10250000FA60BA6A02EB41023A610BF00202BA6069
:102510003A69B96A8A4258D162781BF0020F18BF33
:1025200000217A6208BF4FEA5801B2181BF0010F70
:10253000D2B240F09F801BF0040F14BF4046002031
:10254000BB616270A070E17020463A6A7969FB6AEB
:102550009847051EFFF610AFBB69414623707B6AA2
:102560003A6A6370FB6984F802A0E37007F14800DF
:10257000FB6A9847B0F10008C0F2BA807B69A9EB0A
:102580000A01C91AFB683A6AC91AD7E90A039847C7
:102590000028C0F2AF804FF0000BA84408EB000504
:1025A00007F1380AB34571D300213A6A0846FB6A3D
:1025B0009847E1E656464FF0000807F1380092E7E9
:1025C0005646D04696E7B04694E7BA6A12F8021B20
:1025D00012F8015CBA6254F82500274A904202D3EF
:1025E000264A90421ED3BA6932B1786A7B600AF0FB
:1025F000EBFE7B6800288BD1BA6802BB08F1280289
:1026000007F1300C08F10100944407F1580208F179
:10261000020852FA80F00CF8101C5FFA88F800F8F3
:10262000105C75E7BA693AB1786A7B600AF0CCFE53
:102630007B6800287FF46CAF1BF0010F09D006F116
:10264000280207F13000711C161806F8205CCEB283
:102650005EE71BF0040F3FF45BAF08F1280207F1BF
:10266000300008F1010102EB000808F8105C5FFA85
:1026700081F84DE7002063E7F41901004C71010077
:1026800070020020694E0100040000011BF80A30AE
:1026900054F8239087F83730D7F884302BB3D7F825
:1026A00088309B4521D2D7F8843033F81B80012134
:1026B0003A6AFB6A07F13700984700281ADB05449D
:1026C000B8F1000F06D14846FEF7C8FE00F1010838
:1026D0001FFA88F8414648463A6AFB6A984700283C
:1026E00008DB05440BF1010B5CE74FF00008DEE767
:1026F000454641E605463FE6014B1860704700BF7E
:102700000000002080B505460E461746984608F0A2
:10271000E7FB03460FF064F90446DFF818904246E1
:1027200049F8003039463046A84754F8090003F00C
:1027300095FD00BF080000002DE9F047058B044619
:102740002807904611D4022905F0070540F0CC80F7
:1027500020460BF0E6F878B10138218B042811D817
:10276000DFE800F0C2106D85950001290CBF45F02F
:10277000100545F02005258388F31188BFF36F8F7E
:10278000BDE8F08701F0070AAA4500F0A580002700
:10279000B9463E46A368002B00F0BC8041F008011A
:1027A000218388F31188BFF36F8FA168002900F09F
:1027B000BA800D68002900F0B680334652462046A4
:1027C000D1F80480C047002D76D02B6829461D46DD
:1027D000F0E701F007035A1F012A1BD8002221F05D
:1027E0000701062B276889B2C4E9002209D13B46BC
:1027F00003E0628B013262831B68002BF9D141F048
:102800000201204621830BF08CF800287AD041F099
:10281000200176E0042B0AD121F0070189B220467D
:1028200021830BF07EF810B141F020012183218B30
:1028300001F0070AAA454FD00027B946AAE7236945
:1028400021F0070141F00601062DD3F80090218305
:102850002DD1B9F1000F3FD041F00801218388F359
:102860001188BFF36F8F20463949C84729E021F00E
:102870000701236941F0040189B2042DD3F80490C3
:102880002183E6D000274FF0040A3E4682E721F07C
:102890000701236941F0050189B2052DD3F808909D
:1028A0002183D6D000274FF0050A3E4672E7002765
:1028B0004FF0060A3E466DE72B4687E7B9F1000F59
:1028C000D1D1EFF31188202383F31288BFF36F8FE8
:1028D000238B23F008032383258BEA062ED525F0CE
:1028E0001003238305F007056669218B002EBFF6D0
:1028F00070AF00232768C4E9003321F0070141F0DD
:1029000001012183218B4FF0000901F0070AAA453C
:102910007FF440AF002F9CD041F00801218388F361
:102920001188BFF36F8F002FC8D03D6839463346FA
:10293000524620460BF021F82F46F4E7AB067FF510
:102940001BAF25F02003238305F0070500E700BF38
:10295000A7D900002DE9F047044607464FF00109CA
:10296000DFF8508014B93846BDE8F08794FAA4F532
:10297000B5FA85F509FA05F32E0108EB05156FEA9E
:10298000030A24EA03042B7B002BEBD058F8063013
:102990001B694BB94644736804222846196807EA44
:1029A0000A0700F03DFBDDE7284698470028D9D10B
:1029B000F0E700BFD026010030B5002289B00F49F2
:1029C0000F480EF053FB002200230024CDE906231C
:1029D0000E230C4DCDE903344FF440722846CDE967
:1029E0000144094B0949009407F0E0FF08492846D3
:1029F00007F01CFF204609B030BD00BF152A0000BB
:102A0000F007002020030020312D0000881B00204B
:102A1000A1530100014807F06BBD00BFF002002088
:102A20002DE9F04780461F480F460BF03BF906465C
:102A3000002830D000252846BDE8F087237B6BB105
:102A40002368DB680BB12046984723681B69D3B91C
:102A5000636804222046196800F0E2FA0136103457
:102A60004C45EBD3B8F1000FE5D0002DE2D028465D
:102A7000FFF770FF0546002FF7D0002140F2391014
:102A80000EF053FAF1E7204698470028E0D00AFA02
:102A900006F31D43E2E705464FF0010A024CDFF85A
:102AA0000C90DDE7400F0020D0260100E026010059
:102AB00008B5034608462BB1044A136000F092FDA6
:102AC000002008BD6FF01500FBE700BF04000020E8
:102AD00010B5044C237813B9034807F009FD01230E
:102AE000237010BD281B0020F002002010B5044602
:102AF00009480BF0D7F83CB1084BD3E8EF1F013978
:102B0000C3E8E21F002AF8D105480EF0BBFABDE881
:102B10001040044807F0ECBC380F00203C0F0020A8
:102B2000F0070020F002002000200146034BD3E80C
:102B3000EF0FC3E8E21F002AF9D17047380F0020D9
:102B400070B5FFF7F1FF0546074C084EB44200D3BD
:102B500070BD63685B792BB123685B6813B129464C
:102B6000204698471034F1E7D0260100E026010006
:102B700010B5044C044920460AF056FD034B1C6076
:102B800010BD00BF28020020A82B0100300F00203C
:102B900008B50023074A08491370084A084813601B
:102BA000084A1360FFF784FFFFF7E2FFBDE8084023
:102BB00000F086B9291B002040420F00380F00208A
:102BC000A1DC00003C0F0020014600220023014848
:102BD0000AF04BBD2802002001480AF0E4BD00BF06
:102BE00028020020024B014618680AF030BE00BFE0
:102BF000300F002001480AF065BE00BF2802002007
:102C00002DE9F041334B1878002860D0FFF7E4FF3E
:102C1000044678B1304BD3E8EF1F0139C3E8E21F17
:102C2000002AF8D12D4DDFF8B88045452DD3204638
:102C3000FFF7D8FF2B4B2C4C1B68002B19DD0EF037
:102C400013FA4FF47A75A0FB050647F6122200230B
:102C500005FB0161FEF7D6FBD4E90032C01A40F251
:102C6000E93361EB0201984271F1000101D3FFF7F2
:102C700067FFD4E9003213F57A7342F10002C4E928
:102C80000032BDE8F041FFF7B5BF6B685B793BB13F
:102C900021784B0706D52B68214628461B689847A4
:102CA0001035C2E720462688C1F3C20700F0D8FAE3
:102CB000C6F382160246002EEDD00028EBDB01237E
:102CC0003946284600F0C6F9B042E9D3E3E7BDE84B
:102CD000F08100BF281B00203C0F0020D0260100FF
:102CE000E0260100380F0020E807002070B50D4DE8
:102CF000297861B90120FFF793FE0B4C0B4EB442CB
:102D000006D3FFF77DFF0028FBD101232B7070BD98
:102D100063685B791BB1236820469B689847103431
:102D2000EDE700BF291B0020D0260100E0260100AE
:102D300000212DE9F0470846FFF772FE044658B31C
:102D400040F21B684FF000090EF04AFE1B4B1C4A74
:102D50001B58136033B11B4B1B68092B02DD1A484B
:102D600007F0C6FB0025194FDFF85CA044B12046F0
:102D7000FFF7F0FD044618B94FF0FF384FF0FF3968
:102D8000FFF73EFF064628B9B5B942464B465046C6
:102D900007F0E2FB3546E9E74FF0FF384FF0FF3927
:102DA000D2E72B689B691BB1002228461146984741
:102DB0001035BD42F5D3E8E7054DFAE708000000FD
:102DC000340F00203C0F0020F0020020E02601001C
:102DD000D026010013B518480AF064FF174B1B7882
:102DE00073B1EFF31184202383F31288BFF36F8F45
:102DF000FFF706FF84F31188BFF36F8F02B010BD99
:102E00000F4B1B68002BF9D050B9002200230D484E
:102E1000CDE9002347F61222002308F079FBEDE705
:102E20000928EBD107480EF02DF9074802B0BDE89C
:102E3000104007F05DBB00BF3C0F0020291B0020A5
:102E4000340F0020F0070020F002002010B5064BE0
:102E500004461B6898472146A06004480AF084FC99
:102E6000BDE81040FFF7B6BF040000202802002094
:102E700008B50A46014602480AF03DFD002008BD9B
:102E800028020020014601480AF040BD2802002027
:102E9000024B0348C01AC008704700BF402601001B
:102EA000D0260100044A054B9B1AB1EBD30F34BF67
:102EB00052F831000020704740260100D026010062
:102EC00000210B480B4B30B51B1A0B4CDB080430B0
:102ED000994200D130BD10F83120256802F0070278
:102EE00025F007052A4344F8042B0131F0E700BF21
:102EF00040260100D02601006C020020F8B50646ED
:102F000000240A4F0A4DED1BED08AC4203D14FF0EF
:102F1000FF342046F8BD57F8340020B13146FEF7A3
:102F20008BFA0028F5D00134EFE700BF40260100FE
:102F3000D026010000282DE9F047884615461F4697
:102F40001DDA4FF0000A5446DFF89090244EA6EBAD
:102F500009063609B24509F1100902D12046BDE83B
:102F6000F08759F80C0C3B462A4641460079FFF79A
:102F7000E1FF844238BF04460AF1010AEAE7194B2F
:102F8000194AD21AB5EBD20F26D203EBC5031C792E
:102F9000BC4228BF3C460722144EC0B200EB4000A2
:102FA00056F82530824023EA020304F007028240EB
:102FB00013430021032223FA02F000F007008142AC
:102FC00002F1030238BF01461E2AF4D123F00703A1
:102FD0000B4346F82530C1E70024DCE7D02601008A
:102FE000E026010040260100D02601006C020020EE
:102FF000F8B506460F460024074D084BED1AED08BC
:10300000AC4200D3F8BD002122B23B463046013429
:103010000AF064FEA4B2F3E7D026010040260100C6
:1030200038B50D4611460A4B4268C31A1B110446B7
:103030000133137143689971FFF7DAFF0122636866
:103040001D6063685A71BDE83840FFF741BD00BF9D
:10305000D026010070B14168097973B1002A17DBED
:10306000CBB20C4903EB430351F82200D84000F0E7
:10307000070070474FF0FF31EFE707490748401A54
:10308000B2EBD00F3ABF01EBC20108791846704786
:10309000042070476C02002040260100D026010069
:1030A0002DE9F04F8FB0C1F34A2804AF0D46914689
:1030B000B8607B600C0DB8F1000F67D000264FF0B0
:1030C000040B4FF00A0A07F11403C7F80C80C7E994
:1030D00007667E620193CDF808B0CDF800A007F135
:1030E0001C0332464846F968FFF71CF9B0F5006F3B
:1030F000034620D32A48036813F0060F17D06C4606
:103100008AB0D9F8041004AB264D1A46C3E905511C
:1031100040F2FF71D9614FF400711984224B42F8DB
:10312000103F4FF412513346FFF7BAFFA5462C3734
:10313000BD46BDE8F08FC0F30A0804F1170018443B
:1031400020F0070080083B60FFF73EFD68F3532541
:10315000044690B13B6800F11001C7E9083607F159
:103160001403F961CDE900A3CDF808B048460F4A31
:10317000F96807F11C03FFF7D5F868F353252A46D1
:1031800020467B68B9680AF0D3FDD0E704F1170048
:1031900020F007008008FFF717FD0446EDE700BFA9
:1031A000900200202A4F01000400000105DD00000C
:1031B0002DE9F04F87B00446DDE9105ADDE91279B8
:1031C000934698460391DFB13B46524610210020BA
:1031D000CDF80090CDF81490FEF7D2FEB0F5006F58
:1031E00006460ED31C48036813F0060F30D040F299
:1031F000FF730221194A07B0BDE8F04F0AF0F1BD94
:103200003E4605F11700304420F007008008FFF724
:10321000DBFC04F007040BF0070BE40044EA8B141A
:1032200044EA462444EA0554054640B13FB13B46D2
:1032300052463146CDF800901030FEF7A1FE4346CD
:1032400022462846039907B0BDE8F04F0AF070BD4A
:1032500007B0BDE8F08F00BF90020020694F010069
:10326000406820B1034BC01A40F38F0070474FF005
:10327000FF3070476C0200200EB403B503AB53F867
:10328000042B01460448019303F026FB02B05DF8CD
:1032900004EB03B0704700BF45DE0000CA0605D44A
:1032A0008B064CBF02490349FFF7E6BF704700BFDA
:1032B000E6560100615001002DE9F04F89B09B46B0
:1032C000149B9DF84CA00693159B04460593169BF2
:1032D0000D469046179E0493BAF1000F00F09D80B2
:1032E00006F4807307930AF0F7FC06F00209024621
:1032F00000283ED020469149FFF7BEFF0746B9F1AE
:10330000000F08D016F0440F35D12A4620468C49CC
:10331000FFF7B2FF074406F0010353B1894B204683
:1033200053F82A20884B8949002A08BF1A46FFF71C
:10333000A3FF06F48073002B49D006F00803002B8E
:1033400063D1B8F1000F66D0424620468049FFF7AE
:1033500093FF0546069B3D44002B6DD1049B002B3B
:1033600073D1F30700F1E48031462046FFF796FF62
:10337000D8E00746C3E7774B18680028CAD0764BD9
:103380004FF47A791B684FF03C0CB5FBF3F5B5FBB5
:10339000F0F14FF4616300FB115509FB05F5B1FB3A
:1033A000F3F2B5FBF0FE03FB121100FB1E55B1FB5F
:1033B000FCF309FB05F5B5FBF0F50CFB13112046FA
:1033C0000091CDE901E56549FFF756FFA2E706F058
:1033D0000803EBB1624B204653F82A206149FFF7FE
:1033E0004BFF0546B8F1000F05D04246204658492C
:1033F000FFF742FF0544BBF1000FABD05A46204611
:103400005949FFF739FF0544A4E74FF0000BE1E706
:1034100006F00805E6E745469CE7BBF1010F069B71
:1034200006D1002B64D1049B002B7BD000250CE03F
:10343000002BF8D04D485CE04D48069B22464D4994
:1034400009F091FF049B002B68D0DFF82C81DFF896
:103450002C91049F3146102F204628BF10274FF093
:10346000000BFFF71BFF5D4545DC059B49462046E9
:103470001A78FFF701FF4FF0010B1BF0070F03D184
:1034800041462046FFF7F8FE5F453BD9059B49467C
:10349000204613F80B20FFF7EFFE0BF1010BBBF1F9
:1034A000100FEAD14FF0000B20463549FFF7E4FE3C
:1034B0005A46059B20469A5CA2F120015F2928BF4D
:1034C0002E223049FFF7D8FE0BF1010BBBF1100F94
:1034D0001DD01BF0070F03D141462046FFF7CCFE5D
:1034E0005F455A46E5D841462046FFF7C5FEEBE763
:1034F0001F485546A1E741462046FFF7BDFE0BF1A8
:10350000010BB0E720462049FFF7B6FEC5E7059B53
:103510003B440593049BDB1B04939AD1BAF1000F43
:103520007FF41FAF204609B0BDE8F04F0AF07DBC24
:103530002046054A0549FFF79FFE15E7A64F010003
:10354000AA4F0100BC2B0100A14F0100CF57010081
:10355000CF4F0100480F0020440F0020B34F01005F
:10356000D02B0100D34F0100D94F010073DE0000C2
:1035700045DE0000D9680000E64F0100DE4F010083
:10358000E84F0100F45D0100E44F010042F20F73C7
:1035900073B58B4228BF0B46056804460521684673
:1035A0000D4A08F0DBFA0646636828460B225B6882
:1035B0000A490AF02CFC63683246694628465B6873
:1035C0000AF025FC63681B2228465B6804490AF060
:1035D0001EFC02B070BD00BFEA640100065001008D
:1035E000EA4F010000210123064A904206D8064A0C
:1035F00001B901231360054B186070470121400891
:103600005B00F2E740420F00440F0020480F00200B
:1036100000230428CB604B6098BF044B044A98BF3A
:1036200053F820308A600B60704700BF402D0100C6
:10363000682801000023084A0B60CB604B608A6059
:10364000064B074AD21AB0EB121F3EBF03EB001322
:103650009B680B60704700BFC42C0100D02601009E
:10366000E02601000023064A10B50C46CB604B60F3
:103670008A6001461846FFF715FC206010BD00BFA8
:10368000682801002DE9F34105460E4C0E4E0F4F00
:10369000DFF83C80B44203D3002002B0BDE8F081E3
:1036A0006368284659791B7900290CBF3A4642467F
:1036B000CDE900230821A368064A0AF006FE10346B
:1036C000E8E700BFD0260100E02601003A500100E3
:1036D00032500100435001002DE9F74F044600200D
:1036E0000D46FFF7D5FB074635B16B685B791BB913
:1036F00020461D490AF012FE082120461B4B1C4A99
:103700000AF0E3FD082120461A4A0AF0DEFD4FF0D8
:103710000008DFF864A00FFA88F6BE4208F101083D
:1037200003D3002003B0BDE8F08F3246012300210F
:103730002846FFF78FFC002332461946814628466B
:10374000FFF788FC834631460020FFF7ABFB5AF8B1
:103750002B20034601925AF8292008210092204686
:10376000064A0AF0B2FDD6E7645001007650010027
:1037700082500100A0500100542D0100DD500100D5
:1037800010B5C3693BB19B681C7924B903490AF0A1
:10379000D3FD204610BD0120FCE700BFF150010021
:1037A0002DE9F84F52F8048C064640469B468A465F
:1037B0001746FDF753FE81460E4D0F4B9D4207D332
:1037C000424630460D490AF0B7FD6FF007040CE0A1
:1037D0004A464046A9680DF0FDFE074B044638B93D
:1037E0003B46524629463046D8472046BDE8F88F2A
:1037F0001035E3E7D0260100E02601001551010055
:1038000008B5024BFFF7CCFF002008BDD9360000F9
:10381000014BFFF7C5BF00BFF9DE0000014BFFF70A
:10382000BFBF00BF01DF0000014BFFF7B9BF00BF02
:1038300089390000014BFFF7B3BF00BF53DF000021
:103840001FB5044602A901A8FFF712FB002807DAFA
:10385000204613490AF070FD6FF0070004B010BD58
:10386000204610490AF04CFD2046019A0E490AF004
:1038700047FD2046029A0D490AF042FD03A8FFF7D2
:1038800001FB002805DA204609490AF039FD00202D
:10389000E4E72046039A07490AF032FDF7E700BF44
:1038A0002A5101005B510100835101009851010030
:1038B000B5510100ED5101002DE9F74F80468946D1
:1038C0009A4615469ABB1046FFF7E2FA0746B9F149
:1038D000000F07D0D9F804305B791BB94046264960
:1038E0000AF01CFD0024BC421EDA25B35AF824302D
:1038F00000200193FFF7CCFA00268346B3450AD097
:1039000031460020FFF7CEFA402201990DF062FE09
:1039100078B9002E2ADA5AF8242040461749013493
:103920000AF00AFDA742E1DC03B0BDE8F08F1746BC
:10393000CDE70136E2E7A34600210C9B22B24846C0
:103940000AF0CCF90C9B044683420CD08DB9594641
:103950002846FFF7A7FA0246094B404653F82430A1
:1039600008490AF0DBFC0BF10104BCE7A34634462E
:10397000E2E75AF82B20EFE707520100325201002C
:10398000542D01001C5201002DE9F74F05468846D1
:1039900091461E460027D3F804A0DFF844B0042265
:1039A00050465BF8041B0DF015FE044650B101377C
:1039B000052FF4D1524628460A490AF0BDFC6FF0A3
:1039C000070408E041462846009706F10803A9F1DC
:1039D0000202FFF771FF204603B0BDE8F08F00BF81
:1039E000542D01004C520100014B03600020704730
:1039F000682D010010B504460CF0E6FF03490246AD
:103A000020460AF07DFC002010BD00BF1E540100BE
:103A10001346002273B5044601920A21586801AA90
:103A200001F0EEFB019D95B920EAE07447F61226FD
:103A3000294640F2E7304FF47A720023C4FB0601B6
:103A4000FDF7E0FC0DF071FA284602B070BD2A4681
:103A5000204602490AF070FC019DF5E74A54010036
:103A600008B5034A03490AF04BFC002008BD00BF1B
:103A70003A550100415501002DE9F3411746002355
:103A800004460A21B86801AA019301F0B9FB019D1F
:103A9000C6B24DB12A46204613490AF04DFC019D9D
:103AA000284602B0BDE8F081042E09D932462046EE
:103AB0000E490AF041FC20460AF092FC0125EFE78E
:103AC0007868FFF71BFAB0F1000804DA20467A683C
:103AD00007490AF031FC0021334608460FFA88F204
:103AE0000AF0FCF8DCE700BF6C55010093550100BB
:103AF000AA55010010B5044604F09EFD0749024690
:103B000020460AF0FDFB204605490AF0F9FB214654
:103B1000044807F031FB002010BD00BF095601002A
:103B200028560100293B000070B58EB004460D46B2
:103B3000D0F8AC600DF047F903460DF051FF214A73
:103B400021491058214A002B18BF1A460092204ADA
:103B50002346844218BF0A4628461E490AF0D0FB75
:103B6000D4E90A23CDE90023284694F90E30227BBC
:103B700019490AF0C5FB06A92022204606F066FE78
:103B8000636F0246154928460AF0BAFB204605A98C
:103B90000DF027F9024628B1284611490AF0B0FB7A
:103BA0000EB070BD6422059B2846F11A4A43B2FB51
:103BB000F6F20091CDE901620A4932460AF0A0FB13
:103BC000EEE700BF08000000E64F0100325601009A
:103BD0005368010035560100415601006D56010041
:103BE00084560100B1560100F0B50025044691B09D
:103BF000294608AF1C2209A80DF0C7FC134E1A2253
:103C0000202138460DF0C1FC2146114807F0B4FAD6
:103C100007AA4FF4006130460DF0D7F86423079AE5
:103C20002046C2F500614B43DB0A05934FF4006365
:103C30000097CDE90313CDE9013206492B46324600
:103C40000AF05EFB284611B0F0BD00BF88260020B8
:103C5000593C00000257010070B504460D46D0F8EB
:103C6000AC6088B007A90DF0BCF8024628B1284620
:103C70000E490AF045FB08B070BD20460DF0A3F8D0
:103C80006422079B0096F11A4A43B2FBF6F2CDE993
:103C90000131074BCDE90362002818BF03462246D5
:103CA000284604490AF02CFBE5E700BF84560100D2
:103CB000325601004B5701002DE9F04F87B0044602
:103CC000684606F029F91823009F082103FB0077B6
:103CD000264A20460AF0F9FADFF894A0009DDFF8A2
:103CE00094B0BD4203D3002007B0BDE8F08F2B682D
:103CF0000BB11A7832B92B4614211F4A01A807F0DC
:103D00002DFF01AB5246082120460AF0DEFA284674
:103D10000CF0C4FF194B0821002808BF5B46184A65
:103D200020460AF0D2FA6B69A3B11E6896B13368D7
:103D300083B108212046134A0AF0C7FAB1464FF072
:103D400000083368104A434506D8082120460F4A28
:103D50000AF0BBFA1835C4E70821204659F8043F99
:103D60000AF0B3FA08F10108EBE700BFBE57010003
:103D7000CD570100B5570100C8570100AF570100EA
:103D8000535E0100D2570100CE570100E6560100F4
:103D90002DE9F0411446884607461022002160684C
:103DA00007F07EFFB8F1020F064607D8202308214E
:103DB0003846244A0AF089FA336816E00A220021BC
:103DC000A06807F06DFFC5B22B46082138461D4A92
:103DD0000AF07BFAB8F1030F1AD1102D0CD0202D68
:103DE000EAD0082D0BD13378DBB208213846164AC9
:103DF0000AF06BFA002009E033889BB2F5E73846F9
:103E00000821124A0AF061FA6FF01500BDE8F0814E
:103E100010220021E06807F043FF08210346044612
:103E20000B4A38460AF051FA102D06D0202D07D043
:103E3000082DE4D1E4B23470DCE7A4B23480D9E7D1
:103E40003460D7E7135801003E580100285801009C
:103E50004F58010000232DE9F04F91464FF0FF35F8
:103E6000012287B00193504B074688461A602026EE
:103E700002F074FD2C46DFF834A149465246404614
:103E800002F090FD411C06D16A1C41D148493846D8
:103E90000AF052FA17E073281AD0772828D0612840
:103EA00011D1DFF810B11021DBF8000001AA01F0F8
:103EB000A7F9019B0546002BDFD0DBF800203E4927
:103EC00038460AF039FA6FF0150007B0BDE8F08FF8
:103ED000DFF8E0B00021DBF8000001AA01F090F962
:103EE000019B0446002BC8D0DBF800203349E7E7EC
:103EF000DFF8C0B00021DBF8000001AA01F080F972
:103F0000019B0646002BB8D0DBF800202C49D7E7F0
:103F1000631C01D12B49BAE75FFA86F8C6F3C406E1
:103F2000002C3FD002AB29461A46A6EB050C0CE04C
:103F3000B8F1100F1DD0B8F1200F20D0B8F1080F44
:103F40002AD10878187031443344A64203D80CEBC8
:103F500001001028ECD9102CA14628BF4FF0100901
:103F600029464B46384601F023F81035A4EB0904E6
:103F7000D6E7088880B21870000A5870E3E708682E
:103F80004FEA102E187083F801E04FEA104E000E31
:103F900083F802E0D870D6E7082138460A4A0AF0CA
:103FA00094F990E7204690E7700000209D580100AA
:103FB000A45801000C13002063580100765801003A
:103FC00089580100C15801002858010070B50F4EF2
:103FD00004460D46337871B123B10D49BDE87040F8
:103FE0000AF0AAB90123337020460A490AF088F979
:103FF0000123337004E083F001033370002BF3D10D
:1040000029462046BDE870400AF007BA2A1B002066
:10401000DB5801001659010070B504463B4803788F
:10402000182B02D10B78112B31D00B46013A8D1889
:10403000AB4225D18B5C0A780370A2F13003092BC7
:10404000334C04D922F02003413B052B04D82368CC
:104050003049CA54013323602368022B33D1102224
:1040600000212C4807F01CFE2B4A136803F8010BB3
:1040700013602A4A1368013313600023236022E08F
:1040800013F8016B182ED3D11E78112ED0D1234DE9
:1040900020462A6822490AF033F920460021FFF71A
:1040A00095FF204B187870B91F4A2B681168042BB4
:1040B0000ADC08B111602B6013F003010BD1126808
:1040C00013681BBA136070BD0868043B00BA41F85E
:1040D000040B0120EBE75B4203F0030358BF594296
:1040E000022904D1126813885BBA9BB2EAE703295C
:1040F000E9D1106802681104C2F3074301F47F019B
:104100000B4302F47F4213430360DCE72B1B0020C8
:104110004C0F00202D1B0020580F0020500F0020B6
:10412000405901002C1B0020540F00202DE9F84FAE
:104130000023064615460C462949DFF8A8800B6087
:104140002949DFF8A890DFF8A8B088F800300B60A4
:10415000012C2F4655F804AF1ED90222494650467D
:104160000DF038FA80B99AF80220003A18BF0122FF
:104170009244504602221F490DF02CFA30B9012317
:1041800088F80030013CE3E70022F1E74946504659
:10419000FDF752F9A8B9043700227868114607F0F4
:1041A0007FFD0022144B11461860786807F078FDF7
:1041B000124B134918603046FFF708FF0020BDE896
:1041C000F88F9AF800202D2AE6D19AF80120002ACB
:1041D000E2D05246594630460AF092F8D2E700BF84
:1041E0004C0F00202C1B0020500F00205A590100BA
:1041F000605901005D590100580F0020540F002044
:104200001940000007B50A480CF048FD60B10423CE
:10421000084A0093126801230549074800F02EFF61
:10422000002003B05DF804FB6FF01200F9E700BF57
:104230001C1B0100102E01002427010010B544684A
:10424000A3604023C4E9001242680821D36402F14C
:10425000580313630023C2E90E33C2E91133C2E9E4
:104260000633C2E90933D162146802F15001536385
:104270001364116153611362C2F8D030A36823B193
:104280001B6C13B1204604499847A3681B6A0BB105
:1042900020469847002010BD9D4200002DE9F743BD
:1042A00004460D468368DB6B03B19847A368DB6A5D
:1042B0000BBB4FF0000905F130084046EA6C01A93C
:1042C00009F039FC0746002836D0A36801991B691C
:1042D0003BB3024620469847064628B3314640463F
:1042E00009F046FCB7424FF00109E6D00020D5E9BD
:1042F0000131984703E0204698470028D9D1A368A8
:10430000DB6963BB05F110073846EA6A01A909F0C9
:1043100063FC064650BB204609F065FEC5F8D06038
:104320002FE06FF05706D9E70146404609F020FC20
:10433000B9F1000FE3D0D9E71648036813F0060F70
:1043400003D00221144A09F043FDA3681B69002B26
:10435000EED0012220460DF103019847E8E7204600
:1043600098470028CED103B0BDE8F083A368019937
:10437000DB685BB10246204698470146384609F0A3
:1043800047FCD5E9013101209847ECE76FF0570170
:10439000F4E700BFA4020020C75A010010B504468C
:1043A0008168183101F05EF9A1682046BDE810402F
:1043B000014A183101F0FCB8095B010038B5836887
:1043C0000446D3F87832DB071DD4C0690AF097FDA4
:1043D000606803685B689847054620B9E0680AF0A2
:1043E0003BFFA3681D75A3685B6C13B1294620468B
:1043F000984700220DF0F4FAA368C3F82023034B7A
:10440000185801F02BFF6FF00F05ECE708000000D3
:10441000014909F07ABE00BFE6560100F7B504462F
:1044200080680D46D0F878325A0705D5002109F08A
:1044300094FEE0680AF0E2FEE368DB6873B9002DE1
:104440003BD0A66806F15607384609F06BFE0028F7
:1044500035D0394606F5AB70FCF7F8FFA26829465F
:10446000E0680DF1060356320AF0CBFE58B9A06899
:1044700000F5AB715630FCF7E9FFA068563009F043
:1044800051FEADF8060020460AF001FBA368D3F800
:1044900074329B0603D50B49606909F036FE20464D
:1044A00000F014FFA268BDF806302046A2F8523092
:1044B000A268A2F850300AF04FFA03B0F0BD86F8B7
:1044C0005601CBE7902801002DE9F04FA7B0044634
:1044D0005422002111A80DF058F80023CDE905332E
:1044E000A3682046563302930AF0D8FA20460AF011
:1044F0001CFA10B96069FFF78BFF00264FF0FF37F9
:10450000B246B3463546B146A068142200211830A1
:104510000DF03BF820460AF0A0F9A168E068B1F878
:10452000502056310AF0A4FE20460AF023FF0DF178
:1045300044080396DDE90532012A6DD0132B6ED8AD
:104540005FBBBBF1000F0AD020460AF034FF1423F2
:10455000A26811A956320DEB030009F0FEFFB9F174
:10456000000F0CD099F81130FE2B08D1059B26AA1C
:1045700002EB830252F8542C0AB101330593A06870
:10458000059D436A002B40F0B680CEB1C3699E42C0
:104590002DD00D9600F1180524E002234146029A21
:1045A00006A809F0DAFFD8F804200699034602921B
:1045B00031B101290AD148B16D4A20460AF01CFBED
:1045C0006FF00705284627B0BDE8F08F059B002B4C
:1045D00034D0D8F8000001F065F898B166B1A5684C
:1045E0000D9618350CAE0FCE0FC533682B602046E4
:1045F000FFF7D4FE0125E5E75E4A012120460AF0D7
:10460000FBFADDE7059BCBB129462046D8F8002010
:1046100001F0EAF9022809D1059B132B91D9069BD9
:10462000022B8ED10121544B544AC6E7032805D0F2
:10463000059B4FF0010B013305937BE7039B33B9D7
:104640004846D8F8001007AA0AF07EF8054608F197
:104650000408013F9DB3EB68BBF1000F08D0F3B134
:1046600020460AF01BFA20460AF076F9444AC4E7CD
:10467000ABB1AE46A368DDF814A003F1180CBEE898
:104680000F00ACE80F00DEF80030CCF80030AB686B
:104690002BB96B7CFE2B04BF2F7C07F1FF37D5F8BD
:1046A00004C0BCF1000F08D0AE460CAEBEE80F004F
:1046B0000FC6DEF8003033606646A94603E0059B6E
:1046C00053B101230393069B17B9022B7FF432AF3A
:1046D000059B013305932DE7A368DB6A13B1DB6803
:1046E000002BEED1274B012100932046119B264A37
:1046F0000AF082FAE5E790F82830A5EB0A05BBB18D
:104700004FF6FF7290F82910FF2918BF0A469D4204
:1047100002D313449D420BD98369012120461B4AD1
:104720000AF06AFA2046FFF739FE6FF0150549E7EF
:10473000012109F007FDA06800F5437009F026FD8E
:10474000A36811AA294602EB8A0220465B6A9847B1
:104750000546A0684FF0FF324FF0FF3300F543707D
:1047600009F0BBFC0021A06809F0ECFC2AE700BFBF
:10477000175B01002B5B01008C5B010026510100DF
:10478000495B0100785B0100805E0100B05B0100C5
:10479000022210B5836804461A7583689B6CBBB906
:1047A00009F07AFC8368D3F87832DB040BD5032157
:1047B000084B094A0AF020FAA0686FF4805100F50E
:1047C0001E7009F07FFC2046BDE8104000F0D2BE0C
:1047D00010BD00BFCB5B0100CF5701002DE9F04FAA
:1047E000044680680121B1B000F51E7009F05FFC3D
:1047F000A3681B7D022B20D100230993A368606866
:104800009E6C03681D6909AB0EB310221BA9A84753
:10481000099B93B10121A06809F094FC2046099AF4
:104820001BA9B0470021A06809F08CFCA3689B6C11
:10483000002BE3D12046FFF7ABFF6FF00101A0682A
:1048400000F51E7031B0BDE8F04F09F03BBC01220D
:104850000DF12301A847099B002BEED09DF92320E1
:104860009DF82310002AA368C8DB5A7D032A00F2B2
:104870009782DFE812F0040084029B0295020D2962
:104880007CD00A2958D0B3F8782209296FF3CA02DC
:10489000A3F87822A06800F086803DD80029ADD02A
:1048A000082900F0FB810346D3F874229207A5D5AE
:1048B00001391629A2D801A252F821F04D4E00006C
:1048C000D74C0000DF4C0000CF4C0000414E0000F0
:1048D000FD4C0000FD470000FD470000FD470000C3
:1048E000FD470000054D00000D4D0000FD47000094
:1048F000374D0000FD470000414D0000FD4700001E
:10490000FD470000FD470000FD470000454D000049
:10491000FD4700006F4D00001B2941D07F2900F0AA
:10492000C981A1F120025E2A0346BDD8012109F008
:1049300014FC9DF82310B9E0D3F87822C2F3C70223
:104940002AB1D3F87822C2F3C7020A2AACD1B3F84D
:10495000782261F3CA02A3F87822A568B5F850104E
:10496000C1B9284609F0F9FBE0680AF047FC606924
:10497000FFF74EFD2046FFF70BFF3FE7D3F8782205
:10498000C2F3C702002AE2D0D3F87822C2F3C702EA
:104990000D2ADBE72046FFF797FDC5F82403E9E77A
:1049A000012343752AE7D0F874329B077FF526AFC1
:1049B000012109F0D2FBA068B0F85030FF2B3FF482
:1049C0001DAF0025B0F8522000F1560100F5AB7084
:1049D0000CF0B4FDA3681BA9B3F852200BA8134434
:1049E00083F85651A268142302F5AB7209F0B5FDA5
:1049F0000B9914293FF602AF30AB03EB810343F868
:104A0000545CA368B3F85220002A53D0134493F89F
:104A10005530202B02D0093B042B4BD800294CD118
:104A200000250A950A9B30AA02EB830353F854AC85
:104A30000026504609F076FBB3468146B04637461D
:104A40003946284616AA00F0A1FB0346002840D1AB
:104A5000012EA76865D10A9B30AA02EB830353F8A5
:104A6000540C09F05FFB4146064607F11802284640
:104A700000F08CFB0568284609F054FB864205D0FF
:104A8000821B92B22046A9190AF0FDF8A068B0F87E
:104A90005230034493F85630202B31D0093B042B7D
:104AA0002ED9D0F87432DF072FD42021204600F011
:104AB00029FDA3E60129B3D9013900200CAB0093ED
:104AC00001900AAB1BAA09F06AFE05460028A9D18D
:104AD00094E61B684A465146184603930CF07AFD4B
:104AE00060B9039B1846FCF7B9FC584538BF5846D7
:104AF000002E08BFB8461FFA80FB013601379FE73A
:104B00000121204609F05CFF78E6002109F02FFB27
:104B10002021204600F0F6FC0121A06809F027FBC7
:104B20006CE604907FF66AAE0A9A30AB03EB820221
:104B300052F8543CC1461846039309F0F3FA049B1B
:104B40000590A7F840300496A268494628461832D6
:104B500000F01CFB039BD0F800A009F101094BB148
:104B6000BAF1000F06D019465046059A0CF032FDF6
:104B70000028E9D1A168BAF1000F4DD1A1F840A0F9
:104B8000049B013B0493DFD16069FFF741FC2046A1
:104B900000F0F0FC0A9B30AA02EB830353F8540C9C
:104BA00009F0C0FA414611AA8146284600F0EEFA03
:104BB0000746A0683968FF2200F5AB700CF01CFDB9
:104BC0003B684FF6FF7708F1010AB8460393514658
:104BD000284616AA0AF1010B00F0D8FA002851D095
:104BE0000022A168036801F2551111F801EF985CE9
:104BF000704503D110B101324245F6D1B9F1000F31
:104C000001D04A4506DBBA42A8BF3A46013E012E12
:104C100097B237D0DA46DAE79848069109F082FA77
:104C2000069900EB0B074A8FBFB2121A92FBF7F2FC
:104C3000504692B20791069209F074FA07993F1A0A
:104C4000B1F84000069A00F1010CA1F840C0B0FB99
:104C5000F2F102FB110080B2BFB260B9062120461A
:104C6000864B874ACDF800A009F0C6FF394620469A
:104C700000F016FB84E7534606212046814A09F0DE
:104C8000BBFFF3E7002F3FF4B9AD0399A7EB09028F
:104C9000204692B2494409F0F6FFAFE5D0F87432ED
:104CA0009E077FF5ABAD012109F057FA20460AF0C7
:104CB0000BF8A3E5D0F874329D077FF59FAD012175
:104CC00009F04BFAA368D3F874321907EED42046E2
:104CD00009F0DBFF92E5204609F0E9FE8EE520466B
:104CE00009F0DCFE204609F020FE10B96069FFF7EC
:104CF0008FFB0121A06809F030FA3BE6204609F05D
:104D0000DFFE7BE5204609F0E6FE77E5D3F8743256
:104D10009B0603D55C49606909F0F7F9A368D3F8ED
:104D200074329F0603D55949606909F0EEF92046AF
:104D300000F020FC62E500212046FFF76FFB5DE5F7
:104D40000121F9E7204609F0A2FE204609F0A4F966
:104D50000121A06809F001FAA368D3F874329E0615
:104D60007FF54CAD4A49606909F0CFF946E5204628
:104D700000F026FB0121A06809F0EFF93EE55B2970
:104D800002D102225A7539E5D3F874329D0706D54F
:104D9000622907D14FF0FF31204609F03AFEA3689F
:104DA0000022EFE76629FAD10121F5E700225A75C2
:104DB000A268D2F8743298077FF520ADA1F13103D3
:104DC0001B2B3FF61BAD01A151F823F0494E00000B
:104DD000554E0000694E00003D4E0000FD470000AA
:104DE000FD470000FD470000FD470000FD470000B3
:104DF000FD470000FD470000FD470000FD470000A3
:104E0000FD470000FD470000FD470000414D000048
:104E1000374D0000FD4C0000D74C0000FD4700005E
:104E2000414E0000FD4700004D4E0000FD470000D0
:104E3000FD470000FD470000594E00000323537555
:104E4000204609F02BFED9E403235375204609F0D0
:104E50001EFED3E403235375A068D0F8741201F04A
:104E6000010181F0010159E603235375A368D3F8CA
:104E700074329B077FF5C2AC29E700BFE54F010004
:104E80000F5C0100CF570100952801009A2801000E
:104E9000902801002DE9F04104468068154600F590
:104EA0001E70002937D04FF4804109F000F9A36843
:104EB0000021DD64606803689B68984700284BD137
:104EC000204609F08AF9002846D1244E244FDFF805
:104ED0009480A06800F52F704FF0FF324FF0FF3341
:104EE000032106F04FFB0546A0684FF0FF324FF05C
:104EF000FF3300F543709DB109F0EFF820462B46D3
:104F00000121194A09F078FEA068BDE8F04100F5DA
:104F1000437009F03BB96FF4804109F0D3F8C6E75C
:104F200009F0DBF832460221204609F0D8F83A466B
:104F30002946204609F0D3F820464246012109F0CF
:104F4000CEF8606803685B6903B19847A06800F514
:104F5000437009F01BF9BCE7BDE8F081BD430000D8
:104F6000DD47000091E10000155C010010B504462A
:104F70000A4909F0C5F92046094909F0C1F9204656
:104F8000084909F0BDF92046074909F0B9F920465A
:104F90000021064A00F00CFB002010BD2C5C010033
:104FA0006A5C0100C95C01001D5D0100B75D010084
:104FB000F8B51E4617460A462949044609F0A0F9E5
:104FC0003EB320463A78274909F09AF901256A0745
:104FD00003D12046244909F093F9AE421ED9204658
:104FE0007A5D204909F08CF90135102DEFD120466A
:104FF0001E4909F085F9B6B920461B4909F080F928
:105000000125AE422B4610D82046174909F078F901
:1050100015E02046164909F073F901252046144988
:1050200009F06EF9E0E700252B46FA5C2046A2F174
:1050300020035F2B28BF2E220E4909F061F90135AC
:10504000102D06D06B07DCD12046074909F058F92E
:10505000D7E72046BDE8F840074909F051B900BF3D
:10506000CD5D0100DE4F0100E64F0100E84F010079
:10507000E44F0100F45D0100D45D01002DE9F0432F
:10508000044680688846D0F8201315461F4689B02C
:10509000002960D14FF44A720CF077FAE0680AF008
:1050A0004FF9A06800F543700BF03BFE4FF42F79E9
:1050B0004FF41F76A06830440CF02EF9A06800224F
:1050C00083190121484410360CF0FDF8B6F52F7F06
:1050D00009F11409EED10026A36902211E60A0681F
:1050E00066F3820500F51E7008F0E1FF5022A36808
:1050F00020465A871822A3681A87216809F042F9C6
:10510000A3684146C3F874526068144A03681D6876
:105110002346A8470546D0B90122A3681A75D4E9E9
:105120000A0100220023CDE906230E230393109BDE
:105130004FF40062CDE901730495094B009405F02A
:1051400035FCA368C3F82003616A05F06FFB2846AD
:1051500009B0BDE8F0836FF07705F8E731E10000B2
:10516000954E000010B5044613460A46014606480F
:1051700001F0B2FB23691B7923B12046BDE8104042
:1051800009F051B910BD00BF3FE4000038B50B462F
:10519000154648B91449154A521AB3EB920F05D275
:1051A00051F82350284638BD84680CB90025F9E72A
:1051B0000F4A94420AD30F4A944207D2184629460E
:1051C000226890472B68002BECD1EFE70A4A944203
:1051D00002D30A4A944205D3246814225343E518A3
:1051E000E358F0E70133F8E7542701008427010072
:1051F0006028010070280100842701006028010058
:10520000F7B5037804462D2B164605D16FF015032C
:105210000020336003B0F0BD0CF0E2FB0023054634
:105220000A4F0A46C35101A9204606F039FDEB5941
:10523000222B02D16FF02103EAE7002BE6D1019B7C
:10524000A342E3D01B78002BE4D0DFE70C00000082
:105250008368D3F874329B0603D50249406909F08C
:1052600045BB7047A0280100014909F03FBB00BFC2
:10527000E65601000A1E0DDC0ED042238168D1F8EB
:105280007412890608D5002A04494069B8BF524201
:1052900009F02CBB4123F1E7704700BFF05D01002E
:1052A0000A1E0DDC0ED044238168D1F874128906E1
:1052B00008D5002A04494069B8BF524209F016BB1C
:1052C0004323F1E7704700BFF05D01002DE9F0478F
:1052D0008568044605F15600FCF7C0F8002398469F
:1052E00095F83C70DFF8549086B2A268558FED1B9C
:1052F000B54209DB002E1FDD5633606910491A44A0
:10530000BDE8F04709F0F2BA1D442A4492F856A0CD
:1053100082F85680A26856331A444946606909F0FB
:10532000E5FAA3682B4483F856A0A3685B8FDB1BC8
:10533000F61A00272B46D8E7BDE8F0872651010072
:10534000CF57010008290A4617D8836893F83E1002
:10535000914212D083F83E208368082AD3F8743231
:1053600005D0990609D50549406909F0BFBA9B06E1
:1053700003D50349406909F0B9BA7047F75D0100E8
:10538000A528010038B50D4609780446FFF7DAFF75
:105390006A78072A11D8A36893F83F1091420CD07D
:1053A00083F83F20A368D3F874329B0605D5606963
:1053B0000249BDE8384009F099BA38BD005E0100E5
:1053C000F8B583680446B3F85020002A55D0B3F8E6
:1053D0005210002951D0553103F156050B4418469F
:1053E000A84206D3014611F80169202E3CD0A842FC
:1053F0003CD286B29DB2AB1B9BB2591C471CD21A41
:10540000014438460CF0A7F8A268711BB2F850307E
:10541000204613FA81F3A2F85030A36809B2B3F81A
:1054200050201344002283F8562009F0C9FAA368DB
:10543000D3F874329A0603D51049606909F056FA18
:105440003B46082120460E4A09F0D6FB2046FFF7CE
:10545000FFFEA368D3F874329B060ED56069094934
:10546000BDE8F84009F042BA0846B9E7014611F82C
:105470000169202EBDD00846B9E7F8BDAA28010071
:10548000CF570100AE2801002DE9F04104460D463A
:1054900017460AB1FFF7DCFEA368B3F85220D3F831
:1054A0007412563213444A0721D51846FBF7D6FF2B
:1054B0000646DFF84880A6B9A368B3F85020A3F8E1
:1054C0005220A06809F01FFA20B107B115B1606938
:1054D000FFF7CAFE69422046BDE8F04109B209F073
:1054E0006FBA4146606909F001FA013EE3E708211D
:1054F0002046034A09F080FBDEE700BF5368010045
:10550000CF57010013B583688DF80710D3F87422C4
:105510000446D00725D5B3F85210B3F850208A427C
:105520001FD0481C9DF80720A3F852000B4483F8B5
:105530005620A368D3F87412890710D5D3F87432B3
:10554000606913F0040F18BF2A22094909F0CEF947
:10555000204609F0EAF910B16069FFF785FE02B054
:1055600010BD012220460DF1070109F052FBF6E7BC
:10557000F45D010010B5044683680221084A09F071
:105580003BFBA368D3F874329B0707D52046FFF78F
:105590009DFE2046BDE8104009F0EDB910BD00BFEA
:1055A000CF570100014909F018BD00BFE6560100C0
:1055B0002DE9F04F0E460021044617460D4689B0EE
:1055C000304603AA01F10108FFF7E0FDB0B995B13B
:1055D00027B13A460821204609F00EFB00211E4F54
:1055E000DFF87890DFF878A0304603AA01F10108CF
:1055F000FFF7CCFD60B909B0BDE8F08F006810B1CD
:10560000FBF72CFF80B2854238BF05464146D7E7FD
:1056100003688BB11A787AB1D0F804B04A46CDE964
:10562000005308213B46204609F0E6FABBF1000F83
:1056300004D16069FFF7B6FF4146D5E752462046E0
:105640003B46082109F0D8FAAA1D5946204692B2D5
:1056500009F0D0FCF0E700BF1E5E0100095E01000A
:10566000D94F0100F7B50F6805460E46A7B1384679
:10567000FBF7F4FE84B2094B2846009308213B4611
:10568000074A09F0B9FA2846E21C716892B203B0E1
:10569000BDE8F04009F0AEBC3C46ECE71A5E010004
:1056A000105C010010B507490446FBF7C5FE38B190
:1056B00020460549FBF7C0FEB0FA80F0400910BD56
:1056C0000120FCE7105E0100135E010010B5836845
:1056D0000446D3F874329B0603D50649406909F0A5
:1056E00000FD5022A36800205A871822A3681A8759
:1056F00010BD00BFB228010008B5836902491A68CD
:1057000008F0FEFD002008BD215E01002DE9F341F7
:105710000D49054608F0F4FD00220C4C0C4EDFF854
:105720003480B44202F1010703D3002002B0BDE887
:10573000F081636A92B20093A3684146284608F05C
:10574000DFFD30343A46ECE7315E010024270100EA
:1057500054270100495E010008B5024908F012FE15
:10576000002008BDE756010073B5044600250D4E24
:10577000A2680DF106030121E06802F5AB7209F0A1
:1057800040FDBDF80600A36840B12A4631462046D8
:1057900003F5AB7308F0B4FD0135E9E783F8560172
:1057A00002B070BD5A5E010010B5044608F02DFE2F
:1057B00003490246204608F0A3FD002010BD00BFAB
:1057C00056590100022907B50BD153680C490093C3
:1057D00012680C4B08F0B0FD6FF0150003B05DF8D7
:1057E00004FB8368084AD3F87432084913F0020FA7
:1057F000074B18BF1A4608F083FD0020EEE700BFF4
:105800007D5E0100685E0100645E0100865E01004D
:105810005955010010B583680446D3F874329A06CE
:1058200003D50749406909F05CFCA368D3F87432DA
:105830009B0603D50349606909F053FC002010BDA5
:10584000B9280100BE280100F0B50129044685B041
:105850000AD053685E49009312685E4B08F06CFDF5
:105860006FF0150005B0F0BD8368D3F87432990667
:1058700003D55949406909F034FC00256FF0F9015E
:105880002046FFF7F7FCFA212046FFF709FDA06844
:105890004FF48072294600F5AB708DF80B500BF079
:1058A00074FE4E49606909F01CFC606908F0BBFD9C
:1058B0004FF47A766068012203680DF10B011F69CD
:1058C00003ABB847039BEBB9013E4FF47A70B6B215
:1058D0000BF0DFF9002EEDD1A368D3F874329B06EC
:1058E00003D53F49606909F0FCFB5022A3682046BC
:1058F0005A871822A3683B491A8708F00FFD6FF0FA
:105900000700AFE79DF80B20A3681B2A53D093F83C
:1059100056111B29CED1522A4DD15A19002382F893
:105920005631A66896F857215B2A2BD1022506F23C
:10593000571010F8011F2A463B2905F10105ADB2A9
:1059400023D1FF2AC8D002F5AB7216FA82F10022E9
:1059500011F8010F18BBFA2A28BFFA22FA2B28BF28
:10596000FA2386F85601A1684A87A2681387A368BC
:10597000D3F874329A0603D51949606909F0B1FB6E
:1059800000206FE786F85631A6E703EB8303303932
:1059900001EB4301B5F5807F8BB2CAD19CE701359D
:1059A00002EB8202ADB2303800EB4200B5F5807FE9
:1059B00082B2CDD190E72B440135ADB2092D83F8E9
:1059C00056217FF677AF0022A36883F8562183E73C
:1059D0007D5E0100685E0100C4280100D15E010007
:1059E000C8280100975E01002DE9F04F07461546D3
:1059F000894689B021B1104609F0A8FC00285BD186
:105A0000032455E05C463CE029460AF5AB700BF0F8
:105A10000FFE0646002854D0FBF720FD82B2601C22
:105A20003146013230440BF096FD2246594630464D
:105A30000BF084FD4FF020033355BAF8543008F1D1
:105A4000010801331C44AAF85440002401994B1C5E
:105A5000484603AA0193FFF799FB0646E8B10022E6
:105A60002846316809F045FE0028EFD1D6F800B08D
:105A7000D7F808A0BBF1000FC4D05846FBF7EEFCE6
:105A800084B2BAF854302344FF2BBDDD2B460321EA
:105A900038460D4A09F0B0F80124B8F1000F07D0DC
:105AA000B8682A4600F1540100F5AB7008F025FEF5
:105AB000204609B0BDE8F08F4FF0000802244146AF
:105AC000C5E70224E9E700BF8A63010008B504487E
:105AD00007F0A1FCBDE80840024807F09CBC00BFED
:105AE000DC630100116401002DE9F84305460C4612
:105AF00000AF002948D0DFF8B890D9F800305A0735
:105B000042D0D1E900016E468AB06A46A3684FF0E0
:105B10000508DFF8A0C0C2E90713C2E905C042F8D2
:105B2000108F00234FF421514846FDF7B9FAD9F8F8
:105B30000030B5465B0727D0D4E903018AB06A4636
:105B40006369DFF874C0C2E90713C2E905C042F80F
:105B5000108F002348464FF42151FDF7A1FAD9F8E0
:105B60000030B54658070FD0E36901214846134A73
:105B700008F037F9D9F80030590705D0A369012199
:105B800048460F4A08F02DF9012D0AD1EFF305839D
:105B900007480268520704D00A4A2946103B08F019
:105BA00020F92146284604F029FABD46BDE8F883CD
:105BB0009C0200203F6401006E6401009D640100AE
:105BC000AC640100DA64010030BFFFF7FDBF00BF25
:105BD0002DE9F04105460B4EDFF82C80324606EBEE
:105BE0000807CC1B204609490BF0A8FCA019424627
:105BF0000021083C0BF0C9FCC5F8B84007F10800CB
:105C0000BDE8F081000000000800000070280100DD
:105C1000074A936893F90E10002907DB52699342F3
:105C20001FBF044A536843F080535360704700BF5E
:105C3000E014002000ED00E0F8B5364C064623687D
:105C40000D465B0703D02046334909F0CFFB334BA9
:105C50009B6ADF065CD52368580703D030492D487E
:105C600009F0C4FB11202D4B9B6A190707D5236847
:105C70005A0703D02B49274809F0B8FB1220274FB9
:105C8000BB6A9B0719D52368580703D026492148CA
:105C900009F0ACFB7B6BBA6A11060DD5226852077E
:105CA00004D00121214A1B4808F09BF826B11B4A69
:105CB000936A23F0800393621320184B9B6ADB07DF
:105CC00007D523685F0703D01949124809F08EFBF6
:105CD0001420124B9B6A9E0607D52368580703D0F1
:105CE00014490C4809F082FB15200C4B9A6AD10626
:105CF00058BF9A6A9A6A920642BF5A6A22F40052C0
:105D00005A629A6A42F0FF029A6200232B70F8BD31
:105D10001020A8E79C020020ED64010000ED00E0E7
:105D200003650100366501004965010061650100F8
:105D3000776501009665010010B5334C236858075C
:105D400003D02046314909F051FB314B9B6A990140
:105D500057D523685A0703D02E492B4809F046FB34
:105D60001E202B4B9B6ADB0107D52368580703D005
:105D70002949254809F03AFB1F20254B9B6AD90287
:105D800007D523685A0703D024491F4809F02EFB82
:105D900002201F4B9B6A1B0307D52368580703D0BB
:105DA0001F49194809F022FB2120194B9B6A59030E
:105DB00007D523685A0703D01A49134809F016FB80
:105DC0002220134B9B6A9B0307D52368590703D0F6
:105DD00015490D4809F00AFB23200D4B9B6ADA0395
:105DE00007D523685B0703D01049074809F0FEFA7E
:105DF0002420074A936A6FEA03436FEA13439362CE
:105E000010BD1D20ADE700BF9C020020C56501004C
:105E100000ED00E0DD650100F06501000A660100AB
:105E20003466010052660100776601009166010048
:105E3000F8B5374C064623680D465B0703D020466D
:105E4000344909F0D3FA344B9B6ADF0451D52368F7
:105E5000580703D031492E4809F0C8FA17202E4BB5
:105E60009B6A190507D523685A0703D02C4928488F
:105E700009F0BCFA1820284FBB6A9B0519D5236886
:105E8000580703D02749224809F0B0FABB6BBA6A19
:105E900011040DD52268520704D00121224A1C4862
:105EA00007F09FFF26B11C4A936A23F400439362D4
:105EB0001920194B9B6A5B0507D523685F0703D040
:105EC0001A49134809F092FA1A20134B9A6AD60518
:105ED00011D52368590703D015490D4809F086FAF2
